:020000040800F2
:10000000E806002045010008D50D0008D70D0008BE
:10001000DB0D0008DF0D0008E30D00080000000004
:10002000000000000000000000000000E70D0008D4
:10003000E90D000800000000EB0D0008ED0D0008C0
:100040005F0100085F0100085F010008EF0D000874
:100050005F0100085F0100085F0100085F01000800
:100060005F0100085F0100085F0100085F010008F0
:100070005F0100085F0100085F0100085F010008E0
:100080005F0100085F0100085F0100085F010008D0
:100090005F0100085F0100085F0100085F010008C0
:1000A0005F0100085F0100085F0100085F010008B0
:1000B0005F0100085F0100085F0100085F010008A0
:1000C0005F0100085F0100085F0100085F01000890
:1000D0005F0100085F0100085F0100085F01000880
:1000E0005F0100085F0100085F0100085F01000870
:1000F0005F0100085F0100085F0100085F01000860
:100100005F0100085F0100085F0100085F0100084F
:100110005F0100085F0100085F0100085F0100083F
:100120005F0100085F0100085F0100085F0100082F
:10013000DFF80CD003F050FA0048004779090008B6
:10014000E80600200648804706480047FEE7FEE72D
:10015000FEE7FEE7FEE7FEE7FEE7FEE7FEE7FEE777
:1001600047020008310100080CB500200190009002
:100170004848006840F480304649086000BF454860
:10018000006800F4003000900198401C0190009835
:1001900018B90198B0F5A06FF1D13E48006800F49D
:1001A000003010B10120009001E000200090009884
:1001B000012843D13848006840F0100036490860F3
:1001C0000846006820F0030008600846006840F018
:1001D000020008602F4840682E4948600846406881
:1001E00048600846406840F48060486008464068BF
:1001F00020F47C1048600846406840F4E8104860ED
:100200000846006840F08070086000BF2148006820
:1002100000F000700028F9D01E48406820F003006C
:100220001C4948600846406840F00200486000BF32
:100230001848406800F00C000828F9D10CBD10B532
:10024000FFF792FF10BD10B51248006840F00100A2
:100250001049086008464068104908400D49486048
:10026000084600680E4908400A49086008460068C8
:1002700020F4802008600846406820F4FE004860B2
:100280004FF41F008860FFF7DAFF4FF00060054968
:10029000086010BD00100240002002400000FFF87E
:1002A000FFFFF6FE08ED00E01B4901431B4A116009
:1002B000704770B5002100230F22C47804B3174C97
:1002C000246804F4E064C4F5E064210AC1F1040385
:1002D000CA40447804FA03F18478144021430901A8
:1002E0000F4C0678A155047804F01F050124AC409A
:1002F00005786D11AD0005F1E025C5F8004109E074
:10030000047804F01F050124AC40064D06787611F0
:1003100045F8264070BD00000000FA050CED00E035
:1003200000E400E080E100E010B5012000F0F8F901
:10033000002000F0F5F910BD08B5002200920A4A2D
:100340000092009A02440092009A116008BD08B51C
:100350000146002000900448009000980844009056
:100360000098008808BD0000006C0040D0E9011230
:100370001143C26811430269114342691143826902
:100380001143C2691143026A1143426A1143826AEE
:100390001143C26A1143026B114302689200A2F139
:1003A000C0421160816808290BD101688900A1F160
:1003B000C041096841F0400201688900A1F1C041D3
:1003C0000A60416B0968426B526841EA0211426B54
:1003D000926841EA0221426B928941EA0241426BF2
:1003E000128A41EA0251426B127D41EA0261426B7C
:1003F000926911430268521C9200A2F1C04211603E
:10040000C16AB1F5804F1BD1816B0968826B52685C
:1004100041EA0211826B926841EA0221826B128AE0
:1004200041EA0251826B127D41EA0261826B92695C
:10043000114302689200A2F1C042C2F8041107E021
:100440006FF0704201688900A1F1C041C1F8042138
:10045000704751B18200A2F1C042126842F001031C
:100460008200A2F1C042136009E08200A2F1C04202
:100470001268034B1A408300A3F1C0431A6070470F
:10048000FEFF0F002DE9F041024600250026002066
:1004900000230024002791F803C00CF00F0591F809
:1004A00003C00CF0100CBCF1000F03D091F802C097
:1004B0004CEA050591F800C0BCF1000F31D014687A
:1004C00000202BE04FF0010C0CFA00F3B1F800C053
:1004D0000CEA03069E4220D183004FF00F0C0CFA69
:1004E00003F7BC4305FA03FC4CEA040491F803C08B
:1004F000BCF1280F06D14FF0010C0CFA00FCC2F839
:1005000014C00AE091F803C0BCF1480F05D14FF0C8
:10051000010C0CFA00FCC2F810C0401C0828D1D312
:100520001460B1F800C0BCF1FF0F34DD5468002046
:100530002EE000F1080C4FF0010808FA0CF3B1F8B6
:1005400000C00CEA03069E4221D183004FF00F0C3D
:100550000CFA03F7BC4305FA03FC4CEA040491F8D7
:1005600003C0BCF1280F05D100F1080C08FA0CF803
:10057000C2F8148091F803C0BCF1480F07D100F114
:10058000080C4FF0010808FA0CF8C2F81080401C63
:100590000828CED35460BDE8F0810246002093685D
:1005A0000B400BB1012000E0002070470161704753
:1005B00041617047014908627047000000000E4227
:1005C00010B501460022002300204A11012A02D161
:1005D000594C236806E0022A02D1574C236A01E0F5
:1005E000554C636A01F01F02012494401C400CB179
:1005F000012000E0002010BD5049086070474E49BE
:10060000096A01434C4A116270474C4944390860F9
:10061000704730B50021002200240023464D6D684C
:1006200005F00C0121B1042905D0082923D105E0EA
:10063000434D056022E0424D05601FE03E4D6D6870
:1006400005F470123C4D6D6805F48034022505EB0D
:1006500092421CB93B4D554305600BE0364D6D6829
:1006600005F400351DB1374D5543056002E0344DAA
:100670005543056002E0324D056000BF00BF2E4DBE
:100680006D6805F0F00109092F4D6B5C0568DD40D0
:100690004560294D6D6805F4E061090A2A4D6B5CDF
:1006A0004568DD408560244D6D6805F46051C90AD8
:1006B000254D6B5C4568DD40C5601F4D6D6805F4D8
:1006C0004041890B214D6B5CC568B5FBF3F50561B5
:1006D00030BD29B1184A52690243174B5A6104E0F0
:1006E000154A52698243144B5A61704729B1124A24
:1006F00092690243104B9A6104E00F4A9269824367
:100700000D4B9A61704729B10B4AD26902430A4BDB
:10071000DA6104E0084AD2698243074BDA61704724
:1007200006494039086070470348406A40F08070CD
:1007300001494862704700000010024080044242B4
:1007400000127A0000093D00000000201000002087
:1007500029B1414A128802433F4B1A8004E03E4AC5
:10076000128882433C4B1A8070473B48001D00882A
:1007700040F010003849091D088070473648001DB8
:1007800000884FF6EF7108403349091D0880704713
:10079000002131481C300188001F008841EA0040D8
:1007A000704700B50246FFF7E0FF100C2A491831E8
:1007B0000880091D0A80FFF7E1FF00BD00B5024671
:1007C000FFF7D3FFC2F30340234908310880091D16
:1007D0000A80FFF7D3FF00BD00B50246FFF7C5FF53
:1007E000100C1D4920310880091D0A80FFF7C6FF43
:1007F00000BD00BF1848001D008800F02000002840
:10080000F8D070471448001D00884FF6F771084073
:100810001149091D088000BF0F48001D008800F025
:1008200008000028F8D07047014600200A4A121D2F
:1008300012880A40D0B2084A12880A4012B108B1A0
:10084000012000E0002070470349091D0988814309
:10085000014A121D11807047002800402DE9F04721
:1008600086B005460E460024A24600BFA1460027DA
:10087000B08900B100BF2F462C8A4CF6FF700440AF
:10088000F08804432C82AC894EF6F3100440B08803
:1008900031890843718908430443AC81AC8A4FF61F
:1008A000FF400440B0890443AC8201A8FFF7B1FEC9
:1008B0003048874202D1DDF810A001E0DDF80CA03D
:1008C000A88900F4004040B10AEBCA0000EB0A100E
:1008D00031684900B0FBF1F807E00AEBCA0000EB11
:1008E0000A1031688900B0FBF1F86420B8FBF0F021
:1008F00004012009642101FB1089A88900F400404B
:1009000040B1322000EBC900B0FBF1F000F007006D
:10091000044308E0322000EB09106421B0FBF1F041
:1009200000F00F0004432C8106B0BDE8F08721B130
:10093000828942F40052828104E082894DF6FF737D
:100940001A4082817047C1F30802828070470146D5
:100950008888C0F30800704702460020B1F5007F88
:1009600000D100BF13880B400BB1012000E0002034
:10097000704700000038014088B002F04CF8BF48D2
:1009800002F083FA00214FF4784002F084FABC4868
:100990000388BC4802880021084602F097F802F05C
:1009A00077FAC688B8A1304602F013FA01F042FD8A
:1009B00002F084FA02F0B6FA00F066FEB84800F0E1
:1009C000B8FEB84800F0BBFDA0F5E1452846FFF7AA
:1009D00003FF52E1B4480068012809D1FFF7D8FEAF
:1009E0000446AF49204600F0CCFF0020AE49086025
:1009F0000121AE4802F07DFA01286ED100BFACA003
:100A000003F036F8ADA003F033F8B2A003F030F8ED
:100A1000B749B8A002F0B4FAB548006801280BD174
:100A200001A800F0CCFE01A800F06FFE4AF2A5512B
:100A30000420FFF781FC03E1AD480068022875D16E
:100A4000AD4803F015F81BE0ACA003F011F8954990
:100A50001431A8A002F094FA9248406940F2F6716D
:100A6000884205DC8F48406940F2B271884203DA5F
:100A7000A9A002F0FDFF03E0B0A002F0F9FF00E042
:100A8000E2E700BF10E0B1A002F0F2FF85491031AB
:100A900098A002F075FA834800690C2803DD9EA037
:100AA00002F0E6FF00E000E0EDE700BF7D480069EE
:100AB0000D2840D2DFE800F03F0719081209130A99
:100AC0000B140C150D0000BF00BF00BF00BF00BF1E
:100AD00000BF1F20A34908602DE0B3E000BF00BFA6
:100AE00000BF1E209F49086025E06E494869C11774
:100AF00000EB91718910A0EB8101C1B96949496985
:100B0000642291FBF2F302FB131139B9654949697B
:100B1000920091FBF2F302FB131141B9614909699B
:100B2000022904DD1D208F49086003E087E01C20B6
:100B30008C49086000BF00BF15E08BA002F098FF51
:100B400058490C316BA002F01BFA5648C068854921
:100B50000968884203DD70A002F08AFF03E077A0F5
:100B600002F086FF00E0E8E700BF13E084A002F097
:100B70007FFF4C4908315FA002F002FA49488068C3
:100B8000172803DD64A002F073FF03E06BA002F0FE
:100B90006FFF00E0EAE700BF13E080A002F068FF0B
:100BA0004049091D53A002F0EBF93E4840683B283C
:100BB00003DD59A002F05CFF03E060A002F058FFE3
:100BC00000E0EAE700BF12E07AA002F051FF3549E9
:100BD00048A002F0D5F9334800683B2803DD4EA059
:100BE00002F046FF03E055A002F042FF00E0EBE711
:100BF00000BF2C4841693FA002F03AFF2948016933
:100C00003CA002F035FF2748C1683AA002F030FF4F
:100C10002448816837A002F02BFF2248416835A0A4
:100C200002F026FF1F48016832A002F021FF1D4894
:100C300000F085FCA0F5E1452846FFF7CDFD00BF9B
:100C400000BF00BFA54202D10120604908605F4893
:100C50000068012803D101021448FFF7A7FC4FF4F4
:100C600000515B4802F045F9012806D101020F4806
:100C7000FFF79EFC002055490860ABE6BC0200204F
:100C8000AE020020AC0200202020202020202020C6
:100C900078757368756F736861676F750000000021
:100CA0001C0000203800002008020020000801403D
:100CB0000D0A2020C7EBCAE4C8EB3A000D0A202039
:100CC000312E73657420636C6F636B2074696D657E
:100CD000000000000D0A2020322E73657420616C24
:100CE00061726D20636C6F636B2074696D652000A9
:100CF0001400002025640000708400080D0A207391
:100D0000657420616C61726D636C6F636B207965D3
:100D100073723A20000000000D0A20796F7520657B
:100D20006E746572206572726F20706C6561736598
:100D30002072657772697465210000000D0A2073C6
:100D40006574207375636365737321000D0A2073E6
:100D5000657420616C61726D636C6F636B206D6F85
:100D60006E3A2000180000200D0A2073657420617F
:100D70006C61726D636C6F636B206461793A200003
:100D80000D0A2073657420616C61726D636C6F6312
:100D90006B20686F75723A20000000000D0A207306
:100DA000657420616C61726D636C6F636B206D693B
:100DB0006E3A20000D0A2073657420616C61726DBB
:100DC000636C6F636B207365633A20000C02002034
:100DD00000100140704700BFFEE700BFFEE700BF04
:100DE000FEE700BFFEE7704770477047704710B5D9
:100DF0000120FFF719FD38B10120FFF725FD012083
:100E000007490860FFF7F5FC0220FFF70DFD10B160
:100E10000120044908600320FFF716FD10BD000003
:100E2000080200200C02002002460E2A70D2DFE8E1
:100E300002F086071019222B353F49535D67727CFB
:100E4000F748405C00F0080008B900207047012016
:100E5000FCE7F348405C00F0040008B90020F5E727
:100E60000120F3E7EE48405C00F0020008B90020E2
:100E7000ECE70120EAE7EA48405C00F0010008B92D
:100E80000020E3E70120E1E7E54B481C185C00F097
:100E9000800008B90020D9E70120D7E7E04B481CC3
:100EA000185C00F0400008B90020CFE70120CDE732
:100EB000DB4B481C185C00F0200008B90020C5E797
:100EC0000120C3E7D64B481C185C00F0100008B99D
:100ED0000020BBE70120B9E7D14B481C185C00F0AB
:100EE000080008B90020B1E70120AFE7CC4B481C4F
:100EF000185C00F0040008B90020A7E70120A5E76E
:100F0000C74B481C185C00F0020010B900209DE798
:100F100015E001209AE7C24B481C185C00F0010064
:100F200008B9002092E7012090E7BD4B881C185CAF
:100F300000F0800008B9002088E7012086E7002043
:100F400084E72DE9FF4F83B00C461F4664210398C8
:100F500090FBF1F0C0B20190039890FBF1F201FB1D
:100F60001200C5B20198132806D00198142803D0A6
:100F7000002007B0BDE8F08F0198142806D105F1D4
:100F8000630000EB40001FFA80F904E0681E00EBEC
:100F900040001FFA80F9A24909F10200085C00F044
:100FA000600A4FEA6A1A09F10200085C00F01F0BA0
:100FB000BAF1010F04D1ABF1010000F0FF0803E02A
:100FC0000BF11E0000F0FF080A2C07DA601E95499D
:100FD000095C05980844401E86B208E0A4F10A00A6
:100FE000914931F8101005980844401E86B2022C31
:100FF00008DDE91705EB91718910A5EB810109B9AD
:10100000701C86B246453EDBA6EB080086B2012482
:10101000012002900020009049460298FFF704FF4B
:1010200010B94FF01D0A01E04FF01E0A7C4911F87B
:101030000900C11700EB11714FEA211B1DE0A6EB5F
:101040000A0086B20298401CC0B202905C4508D1EA
:101050000098C043C0B20090009820B9601CC4B290
:1010600001E0601CC4B249460298FFF7DDFE10B9EA
:101070004FF01D0A01E04FF01E0A5645DFDA701CE2
:10108000C0B205904FE0A8EB060000F0FF081DB9C4
:1010900063251320019001E0681EC5B2A9F1030089
:1010A0001FFA80F90C245E4911F80900C11700EB02
:1010B00011714FEA211BBBF1000F02D10C200290ED
:1010C00001E00D2002900020009049460298FFF7B1
:1010D000ABFE10B94FF01D0A01E04FF01E0A1BE0F5
:1010E000A8EB0A0000F0FF080298401EC0B2029070
:1010F000009808B9601EC4B25C4503D10098C04393
:10110000C0B2009049460298FFF78EFE10B94FF02A
:101110001D0A01E04FF01E0AD045E1DCAAEB0800F1
:10112000401CC0B20590019807F8010B07F8015B5D
:1011300007F8014B0598387001201AE710B50A46E8
:10114000B0F5F86F09DBA0F5F86398B23C2390FB8B
:10115000F3F403FB1403D9B20AE0C0F5F86398B2C4
:101160003C2390FBF3F403FB1403C3F13C03D9B21B
:10117000117010BD10B5002305E011F8014B00F807
:10118000014B5C1CA3B29342F7DB10BD2DE9FC417F
:1011900005460E4617461C460F2224A12046FFF79F
:1011A000E9FF01AB3A4631462846FFF7CAFE08B9C7
:1011B000BDE8FC819DF805209DF8041001EBC103FA
:1011C00003EB011102EB81006946FFF7B7FF9DF8C1
:1011D00000000A2190FBF1F201FB1200174951F8BF
:1011E0002080022241462046FFF7C4FF9DF8000000
:1011F0000C2190FBF1F201FB1200114951F8208003
:1012000002224146A01CFFF7B5FF9DF80600012809
:101210001AD102220BA1A01DFFF7ACFF1EE00000B7
:101220004C440008524700085C470008BCD7D7D39D
:10123000C4EAD5FDD4C2B3F5D2BB0000B40000208F
:10124000DC000020D5FD00009DF80600401E8C4A01
:1012500052F820100222A01DFFF78CFF9DF8070016
:101260000A280EDD9DF807000A2190FBF1F0854960
:1012700051F820800222414604F10A00FFF77AFF6C
:1012800005E0022280A104F10A00FFF773FF9DF838
:101290000700401E0A2190FBF1F201FB1200784981
:1012A00051F820800222414604F10C00FFF762FF52
:1012B00000BF7DE72DE9F04104460D46B4F5FA6F15
:1012C00003DB40F60200844202DD0020BDE8F0812D
:1012D0000DB10C2D01DD0020F8E7681E4006010E5F
:1012E0000F2A01DB481CC1B208464FEAE17C01EB42
:1012F0005C7C4FEAEC08A4F5FA6C0CEB4C0CC44493
:10130000DFF8888118F80C604FEAE17C01EB5C7C27
:101310004FEAEC0CA1EBCC0C06FA0CFC0CF08007AD
:101320005B48405C187097B1012905D00B2903D0A8
:10133000122901D0152907D140F2FC70844203DA4A
:101340001878401C187002E01878401E18700120B0
:10135000BCE72DE9F8430546884614461E466B4611
:10136000224641462846FFF7A5FF10B90020BDE8F8
:10137000F883A8F101004006070E0F2C01DB781C52
:10138000C7B29DF80000844208D1424850F82710A7
:1013900005223046FFF7EEFE0120E8E70F223EA1CE
:1013A0003046FFF7E7FE9DF8000084420BDA39482B
:1013B00050F827100422B01CFFF7DCFE9DF8000057
:1013C000001BC4B24DE0781C172801DD0020CEE7D9
:1013D000304A781C52F820100422B01CFFF7CAFED5
:1013E0000F2C0ADA6B460F2241462846FFF762FFB0
:1013F0009DF80000001BC4B233E0A8F101002A49A7
:1014000011F80090B8F1020F17D1E91705EB9171AF
:101410008910A5EB810181B9642195FBF1F201FBF3
:10142000125131B94FF4C87195FBF1F201FB125121
:1014300019B909F1010000F0FF0908F10100C0B27B
:1014400080460D2801D14FF001086B46012241462C
:101450002846FFF72FFFA9EB04009DF80010084471
:10146000C4B20A2094FBF0F03030B0720A2094FB32
:10147000F0F100FB11403030F072012077E70000FE
:101480000C0100203C010020B3F50000A14600083B
:101490003A47000854000020C0EBC1A2B6ACBBB96B
:1014A000D3D03F3FCCEC00006E470008F0B58DB0C4
:1014B00004463022704901A801F050FD6069451EC4
:1014C000642195FBF1F12846EA1705EB9272C1EB16
:1014D000A2014FF4C87295FBF2F28F186069C11730
:1014E00000EB91718910A0EB810191B964226169CF
:1014F00091FBF2F302FB131131B99200616991FB88
:10150000F2F302FB131121B92169022901DD012641
:1015100000E0002640F26D1005FB00712069401EBE
:1015200001AA52F820000844E16808440644072054
:1015300096FBF0F100FB1160A0610DB0F0BD10B59D
:1015400001460869801E0861002805DC08690C3026
:1015500008614869401E48616423486990FBF3F0C4
:101560004A69D31702EB9373C0EBA3004FF4C8741E
:1015700092FBF4F3034440F26F14086960430C24B7
:1015800090FBF4F01844CB68034440F26D1402FB66
:1015900004303A4BC01A00EB40008B6803EBC000EC
:1015A000C0EB00104B6803EB8000C0EB00100B6831
:1015B00003EB800010BD2DE9F04107460C46304892
:1015C000B7FBF0F6B7FBF0F100FB11784FF4616068
:1015D00098FBF0F0A0604FF4616098FBF0F100FB25
:1015E00011803C2190FBF1F060604FF4616098FB4A
:1015F000F0F100FB11803C2190FBF1F201FB1200A5
:10160000206040F2B27509E005F0030010B94FF414
:10161000B77001E040F26D10361A6D1C05F0030042
:1016200010B94FF4B77001E040F26D10B042EBDD3D
:1016300065616069C11700EB91718910A0EB8101B0
:1016400011B91D200F494860012505E0681E0D49AC
:1016500051F82000361A6D1C681E0A4951F8200006
:10166000B042F3DD1C2048602561701CE06020461C
:10167000FFF71CFFBDE8F0817C4700088BFA0A00E9
:10168000805101004C01002008B54FF4C060FEF706
:101690000BFE03208DF8000001208DF801000020D2
:1016A0008DF8020001208DF803006846FEF701FE68
:1016B00008BD10B501214FF0C050FFF724F80120FC
:1016C000FEF778FFFEF730FE0120FEF795FF00BF22
:1016D0006120FEF775FF0028FAD04FF40070FEF786
:1016E0008EFF0120FEF791FFFFF78CF8FFF781F8DE
:1016F00001210320FFF72CF8FFF77BF849F63F4064
:10170000FFF75CF8FFF775F810BD70B50446FFF7FA
:10171000D0FFFFF76EF82046FFF7C8FE2046FFF720
:101720000EFFA0F5E1452846FFF73BF8FFF761F80B
:1017300070BD10B504460420FEF709FE4AF2A5511B
:1017400088420ED0EAA002F093F9F1A002F090F9DD
:101750002046FFF7DAFF4AF2A5510420FEF7ECFD20
:101760002AE001214FF0C050FEF7CDFF0120FEF727
:1017700021FF0120FEF740FF00BF6120FEF720FFA0
:101780000028FAD07B20FEF71BFF18B1E6A002F07C
:101790006FF906E07A20FEF713FF10B1EBA002F01C
:1017A00067F9F3A002F064F9FFF72CF80121032098
:1017B000FEF7CEFFFFF71DF8FEF7B6FF10BD38B5F8
:1017C0000446002000900025F1A002F051F900BF6E
:1017D000FD4802F04DF96946FCA001F0D1FB40F252
:1017E000B2710098884204D340F2F67100988842A2
:1017F00004D9F7A0009902F03BF906E0FDA000999A
:1018000002F036F90098606100E0E1E700BF00BF38
:10181000FE4802F02DF96946ECA001F0B1FB0098FA
:1018200010B100980C2804D9E9A0009902F020F921
:1018300006E0F7A0009902F01BF90098206100E093
:10184000E6E700BF20690D2832D2DFE800F031075B
:1018500014080F09100A0B110C120D0000BF00BF75
:1018600000BF00BF00BF00BF1F2521E000BF00BFB9
:1018700000BF1E251CE06069C11700EB9171891043
:10188000A0EB810191B96422616991FBF2F302FB43
:10189000131131B99200616991FBF2F302FB13114C
:1018A00021B92169022901DD1D2500E01C2500BFA9
:1018B00000BF00BF2946DC4802F0DAF86946C3A041
:1018C00001F05EFB009810B10098A84204D9C0A0B6
:1018D000009902F0CDF806E0D4A0009902F0C8F813
:1018E0000098E06000E0E5E700BF00BFD54802F0E7
:1018F000BFF86946B5A001F043FB0098172804D94A
:10190000B3A0009902F0B4F806E0CFA0009902F06D
:10191000AFF80098A06000E0E8E700BF00BFD04843
:1019200002F0A6F86946A9A001F02AFB00983B281E
:1019300004D9A7A0009902F09BF806E0C9A000997D
:1019400002F096F80098606000E0E8E700BF00BF92
:10195000CA4802F08DF869469CA001F011FB00987E
:101960003B2804D99AA0009902F082F806E0C4A0AE
:10197000009902F07DF80098206000E0E8E700BFE1
:1019800038BD13B5C2B0429800F5E140409043998C
:101990004098FFF710FE4398806828B94398406844
:1019A00010B94398006818B1BB48006800284AD0B5
:1019B0004398007B0D904398007C0C904398808A5C
:1019C00080B20EAB0B90DDE90C12FFF7BAFA9DF86E
:1019D0003B0000909DF83A000D909DF839000C9066
:1019E0009DF838000B900146ACA0DDE90C2302F015
:1019F0003FF84398007B0D904398007C0C904398EF
:101A0000808A80B20EAB0B90DDE90C12FFF7BEFBB3
:101A10000EA9ABA002F02CF84398007B0D904398E0
:101A2000007C0C904398808A80B20EAB0B90DDE96D
:101A30000C12FFF78EFC18B10EA9A1A002F018F845
:101A400000209549086043984069C01E0C2190FB16
:101A5000F1F201FB12009F4951F820000D904398CC
:101A6000006843994968439A9268439B9B699A4CE2
:101A700054F82330CDE90232CDE904104398C06810
:101A800043990969CDE90010439840690C900246DA
:101A900092480D9B429901F0EBFF4FF4FC6001F07E
:101AA000FFF98FA10EA8429A01F0F2FF01F0F0F9C0
:101AB000C0884004000C0EA90D9001F08AF94398EB
:101AC0004069024641A10D900EA801F0E1FF0EAA67
:101AD000C521662001F0ABF943988069864951F829
:101AE0002000024685A10D900EA801F0D1FF13E160
:101AF0000D0A0D0A20525443206E6F7420796574CC
:101B000020636F6E666967757265642E2E2E2E00D7
:101B10000D0A0D0A2052544320636F6E6669677583
:101B20007265642E2E2E2E000D0A0D0A20506F773E
:101B30006572204F6E205265736574206F63637504
:101B4000727265642E2E2E2E000000000D0A0D0A02
:101B50002045787465726E616C20526573657420DF
:101B60006F636375727265642E2E2E2E0000000066
:101B70000D0A204E6F206E65656420746F20636FC0
:101B80006E666967757265205254432E2E2E2E00A4
:101B90000D0A3D3D3D3D3D3D3D3D3D3D3D3D3D3DD8
:101BA0003D3D3D3D3D3D3D3D3D3D3DC9E8D6C3CA82
:101BB000B1BCE43D3D3D3D3D3D3D3D3D3D3D3D3DBB
:101BC0003D3D3D3D3D000000DC86000825640000F1
:101BD0000D0A20C4FACAE4C8EBB5C4CAFDD7D6CAF8
:101BE000C73A2564A3ACB2BBB7FBBACFD2AAC7F33E
:101BF000000000000A0D2020C4EAB7DDB1BBC9E82F
:101C0000D6C3CEAA3A2025640A0D000054860008E7
:101C10000A0D2020D4C2B7DDB1BBC9E8D6C3CEAA15
:101C20003A2025640A0D0000AC8700080A0D202028
:101C3000C8D5C6DAB1BBC9E8D6C3CEAA3A20256456
:101C40000A0D0000988600080A0D2020CAB1D6D3DC
:101C5000B1BBC9E8D6C3CEAA3A2025640A0D00005C
:101C6000688700080A0D2020B7D6D6D3B1BBC9E8D3
:101C7000D6C3CEAA3A2025640A0D000024870008A6
:101C80000A0D2020C3EBD6D3B1BBC9E8D6C3CEAA78
:101C90003A2025640A0D0000A80200200D0A20BD8C
:101CA000F1CCECD0C2C0FAA3BA25302E3264253074
:101CB0002E32642C25302E32642C25302E326400D6
:101CC0000D0A20BDF1CCECC5A9C0FAA3BA25730D4D
:101CD0000A0000002C0200201002002004860008E8
:101CE00020554E49582054696D655374616D7020BC
:101CF0003D202564200000005C02002020202020E0
:101D000020202020202020202020202020202020D3
:101D100020202020257300000EAA3A21F02001F097
:101D200086F84398C0680D90439800690C9002466D
:101D3000FEA10EA80D9B01F0ABFE0EAA49210320C7
:101D400001F075F8439800680090439840680D9042
:101D5000439880680C900246F6A10EA80D9B01F0F6
:101D600097FEF948006800287DD10EAAD921572096
:101D700001F05DF84FF4784001F092F800235A2208
:101D8000AC21782000F036FF4FF4FC6001F088F8B9
:101D900000230322AC21782000F02CFF4FF4FC60DC
:101DA00001F07EF800231E225321232000F022FFA1
:101DB0004FF4FC6001F074F800231E225321CD2063
:101DC00000F018FF0020E149086065E1DF48006885
:101DD0004000019001F012FBDD4ADE4BCDE902012B
:101DE00001F02BFA0022DC4BCDE9040101F097FA57
:101DF000CDE9060102F0DAFA0022D84BCDE908015C
:101E000001F01BFA0022D64BCDE90A0101F06EF970
:101E1000CDE90C0101F003FBD2490860CB48006812
:101E20004000019001F0EAFAC94ACA4BCDE902012B
:101E300001F003FA0022C84BCDE9040101F06FFA6A
:101E4000CDE9060102F064FA0022C44BCDE9080195
:101E500001F0F3F90022C44BCDE90A0101F0EAF9DF
:101E6000CDE90C0100E01CE101F0D9FABF4908609E
:101E7000B64800684000019001F0C0FAB44AB54B82
:101E8000CDE9020101F0D9F90022B34BCDE90401FB
:101E900001F045FACDE9060102F088FA0022B44BC0
:101EA000CDE9080101F0C9F90022AD4BCDE90A01E5
:101EB00001F01CF9CDE90C0101F0B1FAAD4908605F
:101EC000A24800684000019001F098FAA04AA14B96
:101ED000CDE9020101F0B1F900229F4BCDE90401E7
:101EE00001F01DFACDE9060102F012FA0022A04B22
:101EF000CDE9080101F0A1F900229B4BCDE90A01CF
:101F000001F098F9CDE90C0101F089FA9A490860CD
:101F10008E480068052190FBF1F201FB12000028B9
:101F20007ED18A4800684000019001F067FA884A33
:101F3000884BCDE9020101F080F90022864BCDE902
:101F4000040101F0ECF9CDE9060102F02FFA0022BC
:101F50008A4BCDE9080101F070F90022804BCDE9F0
:101F60000A0101F0C3F8CDE90C0101F058FA7D49EE
:101F70000860764800684000019001F03FFA744A1A
:101F8000744BCDE9020101F058F90022724BCDE902
:101F9000040101F0C4F9CDE9060102F0B9F900220B
:101FA000764BCDE9080101F048F900226E4BCDE9EE
:101FB0000A0101F03FF9CDE90C0101F030FA6B495B
:101FC0000860624800684000019001F017FA604A1A
:101FD000604BCDE9020101F030F900225E4BCDE902
:101FE000040101F09CF9CDE9060102F0DFF90022BD
:101FF0005A4BCDE9080101F020F90022584BCDE9F8
:102000000A0101F073F8CDE90C0101F008FA594911
:1020100008604E4800684000019001F0EFF900E0D0
:1020200021E04B4A4B4BCDE9020101F006F90022B9
:10203000494BCDE9040101F072F9CDE9060102F046
:1020400067F90022454BCDE9080101F0F6F80022BE
:10205000454BCDE90A0101F0EDF8CDE90C0101F0A5
:10206000DEF9454908604148008880B20D903D483E
:10207000008880B20C904048008880B20B903D48A8
:10208000008880B20A900BA90EC900F063FD2F48AA
:102090000068401C2D4908602C4800683C28FFF669
:1020A00095AE439880683649086043984068354942
:1020B000086043980068344908604398006840000D
:1020C000099001F09BF9224A224BCDE90A0101F067
:1020D000B4F80022204BCDE90C0101F020F92B4A85
:1020E00003C200221C4B294903C901F018F9CDE9AC
:1020F0000C01439840684000059001F07FF9144AB4
:10210000144BCDE9060101F098F80022124BCDE9FD
:10211000080101F004F9CDE90A01DDE90C2300F022
:10212000E5FF1B4A03C200221A4B35E0202025643C
:102130002D25640025302E32643A25302E32643A43
:1021400025302E3264000000940100209001002010
:102150004AD8124DFB21094000004E400040554036
:1021600000005E4080010020008065408401002066
:1021700000005440880100208C01002000C0524023
:10218000FC0100200002002004020020A801002021
:10219000A0010020000028408F4903C901F0BFF8CA
:1021A000CDE90C01439880684000059001F026F9C4
:1021B0008A4A8B4BCDE9060101F03FF80022894B9A
:1021C000CDE9080101F0ABF8CDE90A01DDE90C2306
:1021D00000F08CFF844A03C2844903C902F0E6F888
:1021E0000022834BCDE9080101F027F80022814B42
:1021F000CDE90A0100F07AFFCDE90C0101F00FF9F9
:102200007D490860794903C902F082F80022784BC1
:10221000CDE9080101F011F80022784BCDE90A015F
:1022200001F008F8CDE90C0101F0F9F874490860F3
:10223000694903C902F0BAF80022724BCDE90801DE
:1022400000F0FBFF00226B4BCDE90A0100F04EFFCE
:10225000CDE90C0101F0E3F86B4908605E4903C960
:1022600002F056F80022674BCDE9080100F0E5FFC7
:102270000022624BCDE90A0100F0DCFFCDE90C0140
:1022800001F0CDF861490860574903C902F08EF8A2
:1022900000225F4BCDE9080100F0CFFF0022554B33
:1022A000CDE90A0100F022FFCDE90C0101F0B7F8F9
:1022B000584908604C4903C902F02AF80022544BDF
:1022C000CDE9080100F0B9FF00224C4BCDE90A012D
:1022D00000F0B0FFCDE90C0101F0A1F84E49086013
:1022E000002000F0DDFD4D48008880B20D904C4884
:1022F000008880B20C900246AC2178200D9B00F043
:1023000029FC4848008880B20D904748008880B278
:102310000C900246AC2178200D9B00F01BFC43483A
:10232000008880B20D904248008880B20C9002462E
:10233000AC2178200D9B00F00DFC2F4800683C4933
:1023400008602F480068394908602F4800683649FE
:1023500008602E480068334908602E4800683049FC
:1023600008602D4800682D4908601F2000F098FD86
:102370002948008880B20D902648008880B20C90D1
:102380000246AC2178200D9B00F0E4FB4FF4FC608A
:1023900000F086FD1D48008880B20D901A48008824
:1023A00080B20C900246AC2178200D9B00F0D2FB4D
:1023B0004FF4784000F074FD1148008880B20D9011
:1023C0000D48008880B20C900246AC2178200D9B0D
:1023D00000F0C0FB44B010BDA00100204AD8124D4F
:1023E000FB2109400000284098010020A80100209E
:1023F0000040504000005E40C00100200080654069
:10240000C401002000804B40B8010020BC01002026
:1024100000004440B0010020B4010020CC010020A5
:10242000C8010020D4010020D0010020DC010020E0
:10243000D801002000B585B001210420FEF756F92F
:1024400001218803FEF752F94FF40070ADF8100037
:1024500018208DF8130003208DF8120004A92248DB
:10246000FEF710F84FF48060ADF8100004208DF8EE
:10247000130004A91C48FEF705F84FF4E130009062
:102480000020ADF80400ADF80600ADF80800ADF886
:102490000C000C20ADF80A0069461448FEF7DEF97E
:1024A00001211248FEF743FA05B000BD70B504469D
:1024B0000D46E1B20D48FEF746FA00BF80210B48F9
:1024C000FEF74AFA0028F9D0204670BD10B5044640
:1024D00000BF20210548FEF73FFA0028F9D0034845
:1024E000FEF735FA10BD0000000801400038014039
:1024F00001B502E00098401E009000980028F9D134
:1025000008BD08B501216020FEF7F0F803208DF822
:10251000020018208DF803004FF48040ADF8000051
:102520006946FE48FDF7AEFF4FF40040ADF80000ED
:102530006946FA48FDF7A6FF0120ADF8000069469C
:10254000F648FDF79FFF0220ADF800006946F3480A
:10255000FDF798FF8020ADF800006946F048FDF7D0
:1025600091FF4FF48070ADF800006946EC48FDF72C
:1025700089FF4FF40070ADF800006946E848FDF7A8
:1025800081FF4FF48060ADF800006946E448FDF734
:1025900079FF4FF40060ADF800006946E048FDF7B0
:1025A00071FF4FF48050ADF800006946DC48FDF73C
:1025B00069FF4FF40050ADF800006946D848FDF7B8
:1025C00061FF4FF48040ADF800006946D448FDF744
:1025D00059FF4FF40040ADF800006946D048FDF7C0
:1025E00051FF4FF48070ADF800006946CB48FDF70D
:1025F00049FF4FF40070ADF800006946C748FDF789
:1026000041FF4FF48060ADF800006946C348FDF714
:1026100039FF03208DF8020018208DF803001020E8
:10262000ADF800006946BD48FDF72CFF2020ADF84D
:1026300000006946B948FDF725FF8020ADF800008D
:102640006946B648FDF71EFF4FF40060ADF8000084
:102650006946B248FDF716FF10208DF803000320ED
:102660008DF802000220ADF800006946AC48FDF785
:1026700009FF10208DF8030003208DF802004FF4AD
:102680008050ADF800006946A448FDF7FBFE08BD88
:1026900000B597B001210802FEF71BF80120019058
:1026A000042003908006079000200290049005907B
:1026B00006900890099008200A9010200B900020A6
:1026C0000C900E900F9010904FF4805011900020BD
:1026D00012901390149001A81590169008A8FDF779
:1026E00045FE01210020FDF7B4FE17B000BD10B576
:1026F000CF2001F0B3F9002001F0B4F9812001F0FE
:10270000B1F9302001F0AEF9ED2001F0A7F9642015
:1027100001F0A8F9032001F0A5F9122001F0A2F9B7
:10272000812001F09FF9E82001F098F9852001F05F
:1027300099F9102001F096F9782001F093F9CB2057
:1027400001F08CF9392001F08DF92C2001F08AF983
:10275000002001F087F9342001F084F9022001F013
:1027600081F9F72001F07AF9202001F07BF9EA20C5
:1027700001F074F9002001F075F9002001F072F900
:10278000B12001F06BF9002001F06CF91B2001F081
:1027900069F9B62001F062F90A2001F063F9A2207C
:1027A00001F060F9C02001F059F9352001F05AF923
:1027B000C12001F053F9112001F054F9C52001F0B6
:1027C0004DF9452001F04EF9452001F04BF9C720A5
:1027D00001F044F9A22001F045F9F22001F03EF9A0
:1027E000002001F03FF9262001F038F9012001F026
:1027F00039F9E02001F032F90F2001F033F92620F9
:1028000001F030F9242001F02DF90B2001F02AF914
:102810000E2001F027F9092001F024F9542001F0DD
:1028200021F9A82001F01EF9462001F01BF90C2027
:1028300001F018F9172001F015F9092001F012F93B
:102840000F2001F00FF9072001F00CF9002001F032
:1028500009F9E12001F002F9002001F003F9192043
:1028600001F000F91B2001F0FDF8042001F0FAF856
:10287000102001F0F7F8072001F0F4F82A2001F009
:10288000F1F8472001F0EEF8392001F0EBF80320D1
:1028900001F0E8F8062001F0E5F8062001F0E2F882
:1028A000302001F0DFF8382001F0DCF80F2001F0D3
:1028B000D9F8362001F0D2F8C82001F0D3F82A2048
:1028C00001F0CCF8002001F0CDF8002001F0CAF8AA
:1028D000002001F0C7F8EF2001F0C4F82B2001F030
:1028E000BDF8002001F0BEF8002001F0BBF8012087
:1028F00001F0B8F83F2001F0B5F83A2001F0AEF849
:10290000552001F0AFF8112001F0A8F80548FFF7B5
:10291000EFFD292001F0A2F810BD000000140140D5
:1029200000180140FCBF020010B50446072C00DD72
:1029300010BDF7480470204604EBD0714910A4EB99
:10294000410139B9F020F34908804FF4A070F249F1
:10295000088006E04FF4A070EE490880F020EE49B0
:102960000880362001F07AF8082141EA441001F08D
:1029700079F82A2001F072F8002001F073F80020A5
:1029800001F070F8E3490988491EC1F3072001F0FE
:1029900069F8E0490978491EC8B201F063F82B20B4
:1029A00001F05CF8002001F05DF8002001F05AF819
:1029B000D9490988491EC1F3072001F053F8D649C7
:1029C0000978491EC8B201F04DF82C2001F046F8F4
:1029D00000BFADE710B50221D048FDF7E9FD40F694
:1029E000FF20FFF785FD0221CC48FDF7DFFD40F613
:1029F000FF20FFF77DFD10BD10B504462CB14FF44C
:102A00008051C748FDF7D4FD04E04FF48051C4481D
:102A1000FDF7CCFD10BD10B5FFF773FDFFF738FED5
:102A20000120FFF7E9FFFFF7D5FFFFF760FEB84889
:102A30000078FFF779FF10BD2DE9F04104460D46FF
:102A400016461F462A2001F009F8201201F00AF864
:102A5000E0B201F007F8A119491EC1F30F2001F0FF
:102A600001F8A119491EC8B200F0FCFF2B2000F0AC
:102A7000F5FF281200F0F6FFE8B200F0F3FFE919C5
:102A8000491EC1F30F2000F0EDFFE919491EC8B23D
:102A900000F0E8FFBDE8F08170B504460D46012363
:102AA0001A4629462046FFF7C7FF70BD70B5044699
:102AB0000D4600262C2000F0D1FF00BF03E0284681
:102AC00000F0D0FF761CA642F9D370BD2DE9F0418D
:102AD00006460F4614461D462B46224639463046CA
:102AE000FFF7AAFF04FB05F08E490988FFF7DEFF18
:102AF000BDE8F08170B505460C46864800888542E1
:102B00000CDA85480088844208DA21462846FFF717
:102B1000C3FF854801880120FFF7C8FF70BD70B56D
:102B20000024002500262E2000F098FF00F090FFE2
:102B3000044600F08DFF044600F08AFF064600F0D0
:102B400087FF0546E012C002A91240EA411040EAA0
:102B5000E62070BD2DE9FF4F83B081464FF0000A9B
:102B6000D3460598A0EB090504990698461ACDF8B6
:102B7000049004980090002D01DD012705E00DB9B7
:102B8000002702E04FF0FF376D42002E02DD4FF0CC
:102B9000010806E016B94FF0000802E04FF0FF38D8
:102BA0007642B54201DD2C4600E03446002002901A
:102BB00019E0DDE90010FFF79DFFAA44B344A245E8
:102BC00005DDAAEB040A0198384480B20190A345C0
:102BD00005DDABEB040B0098404480B200900298F6
:102BE000401C80B20290611C02988842E1DD07B06F
:102BF000BDE8F08F2DE9F05F05460E4691469B46F5
:102C000000240FFA89F70320A0EB49000FFA80FA9D
:102C100095E0BBF1000F40D0A0463BE006EB080278
:102C200091B22A1990B2FFF765FF06EB080291B244
:102C30002A1B90B2FFF75EFF321991B2A5EB080292
:102C400090B2FFF757FF321B91B2A5EB080290B28A
:102C5000FFF750FFA6EB080291B22A1B90B2FFF7D4
:102C600049FFA6EB080291B22A1990B2FFF742FF82
:102C7000321B91B205EB080290B2FFF73BFF32190D
:102C800091B205EB080290B2FFF734FF08F10100A2
:102C90000FFA80F8B845C1DD2FE0F21991B22A1978
:102CA00090B2FFF727FFF21991B22A1B90B2FFF7FB
:102CB00021FF321991B2EA1B90B2FFF71BFF321BC2
:102CC00091B2EA1B90B2FFF715FFF21B91B22A1BDB
:102CD00090B2FFF70FFFF21B91B22A1990B2FFF7E3
:102CE00009FF321B91B2EA1990B2FFF703FF3219C4
:102CF00091B2EA1990B2FFF7FDFE601C04B2BAF17E
:102D0000000F13DAA000801D50440FFA80FA15E07E
:102D1000B0020020AC020020AE02002000180140EA
:102D200000140140BA020020B8020020E01B80001D
:102D30000A3050440FFA80FA781E07B200BFBC4236
:102D40007FF767AFBDE8F09F2DE9F05F80468946C9
:102D50001646A6F120001FFA80FA534909688988AF
:102D6000514A1268D28801FB02F0C11700EB517181
:102D7000C1F3C7074C48006800680AFB070B4A48C4
:102D80000068C38848480068828849464046FFF783
:102D900053FE2C2000F062FE002416E0002510E017
:102DA0001BF8040080212941084020B13F480088D9
:102DB00000F058FE03E03E48008800F053FE681C17
:102DC000C5B2082DECDB601CC4B2BC42E6DBBDE83A
:102DD000F09F70B504460D46002624E03046324987
:102DE00009688988084433490988884205DD002636
:102DF0002D480068C088204484B220462A490968CA
:102E0000C98808442C490988884201DD002600242D
:102E10002A7821463046FFF797FF6D1C224800684C
:102E20008088304486B228780028D7D170BD70B52C
:102E300005460E46144624E028461B490968898841
:102E400008441C490988884205DD002516480068A9
:102E5000C088304486B2304613490968C98808449E
:102E600015490988884201DD00250026227831466F
:102E70002846FFF769FF641C0B48006880882844D7
:102E800085B220780028D7D170BD07490860704707
:102E9000054800687047054A1080054A1180704750
:102EA0000249088070470000B4020020B8020020E8
:102EB000BA020020AC020020AE02002008B50121B9
:102EC0001420FDF713FC0120ADF8000004208DF85C
:102ED000030069461148FDF7D5FA4FF40050ADF8EC
:102EE000000004208DF8030069460D48FDF7CAFA7A
:102EF00008BD70B504460D4629462046FDF74DFB3A
:102F0000012808D100BF29462046FDF746FB0128CD
:102F1000F9D0012070BD0020FCE70000000801404E
:102F20000010014008B501210420FDF7DFFB4FF43C
:102F30008070ADF8000010208DF8030003208DF89C
:102F4000020069460448FDF79DFA4FF4807102487B
:102F5000FDF72EFB08BD00000008014040EA010318
:102F60009B0703D009E008C9121F08C0042AFAD23F
:102F700003E011F8013B00F8013B521EF9D2704703
:102F80000FB400B589B00BA800906A4603480A99AF
:102F900000F0BAFA09B05DF814FB0000D40200207A
:102FA0002DE9FF5F1D464FF0FF3BD5E901469146F5
:102FB0005F464FF00008A9697F1C01988847296A7D
:102FC000824688470028F6D1BAF1FF3F0CD024F49E
:102FD000C064002E19DD600614D5BAF12B0F09D09C
:102FE000BAF12D0F0ED103E0584604B0BDE8F09FB2
:102FF00044F48064A9697F1C01988847761E824644
:10300000002E02DDBAF1300F03D0B9F1000F26D047
:1030100032E0A969761E44F400747F1C0198884749
:103020008246002E05DDBAF1780F06D0BAF1580FAE
:1030300003D0B9F1000F10D01EE0B9F1000F02D09B
:10304000B9F1100F18D1A969761E24F400747F1C01
:10305000019888478246102002E0082000E00A20FC
:10306000814609E008FB0908A969761E44F400744A
:103070007F1C019888478246002E05DD4946504650
:1030800000F033FA0028EDDAE96901988847A005D5
:1030900002D46FF00100A8E7E00725D1600613D540
:1030A000600502D5C8F1000000E0404629680A1D0D
:1030B0002A600968220501D5087015E0220701D5AC
:1030C000088011E008600FE02868011D2960006891
:1030D000210502D580F8008006E0210702D5A0F87E
:1030E000008001E0C0F8008038467EE72DE9FE4F01
:1030F000804681EA0300C00F0C46009021F0004199
:1031000023F00045B8EB0200A94105D24046214614
:1031100090461C460B46024623F00040104347D021
:10312000270DC7F30A00C3F30A510290401A019019
:1031300040286BDAC3F3130040F4801B00989246DA
:1031400020B10023D2EB030A63EB0B0B0198594625
:10315000C0F14002504600F097F906460D46504631
:103160005946019A00F0AFF910EB080061410024C4
:1031700087EA115284EAE7731A4340D0009A62B397
:10318000019A012A4FEA075215DC001B61EB02018C
:103190004FF0004202EA0752CDE90042001C41F51F
:1031A000801132462B4600F0C8F903B0BDE8F08F1D
:1031B00040462146F9E7001B61EB0201001C41F586
:1031C000801300185B412018A2F5001747EB03019C
:1031D00040EAD570B6196D4111E06D084FEA360628
:1031E00045EAC0754FEA0752001B61EB0201001C63
:1031F00041F5801149084FEA30000019514132462B
:103200002B4603B0BDE8F04F00F088B900980122CA
:1032100040000023D0EB020263EBE07300982146EC
:103220004FEAE074B8EB000061EB0401E9E783F0DA
:1032300000435BE781F0004158E72DE9FE4F81EA4A
:10324000030404F0004421F0004100944FF0000B0F
:1032500023F0004350EA01045ED052EA03045BD03D
:10326000C3F30A54C1F30A552C44A4F2F334019475
:10327000A0FB0254C1F3130141F48011C3F3130303
:1032800043F4801301FB024400FB034E840A970AB7
:1032900044EA815447EA8357A4FB076802958D0AE4
:1032A00005FB07854FEA932C04FB0C542705029D70
:1032B0004FEA065847EA1637B5EB08056EEB070CE0
:1032C000870E920E47EA811742EA8312A7FB02019A
:1032D000B6EB0B0164EB00042B0D43EA0C335E18D4
:1032E00044EB1C50DA465146E7FB0201C5F31304D8
:1032F0004FEA0B3343EA14534FEA0432019C43EA8A
:103300000603A4F10C040294009CCDE900B400F083
:1033100014F903B0BDE8F08F00200146F9E72DE96C
:10332000F04D81EA030404F0004B21F000451446FF
:103330004FF0000A23F0004150EA050220D054EA81
:1033400001021DD0C5F30A570246C5F31303C1F3AA
:103350001300C1F30A5640F4801543F48013A7EB21
:103360000608101BD64608F2FD3873EB050002D3A1
:1033700008F1010801E092185B41B8F1000F03DA8F
:1033800000200146BDE8F08D00204FF48011064674
:1033900084460EE0171B73EB050705D3121B63EB86
:1033A000050306434CEA010C49084FEA3000921825
:1033B0005B4150EA0107EDD152EA030012D082EAE4
:1033C000040083EA0501084305D0101BAB4106D277
:1033D0000122002306E000224FF0004302E06FF0DC
:1033E000010253101AEB06004CEB085110EB0A00D7
:1033F00041EB0B01BDE8F04D00F090B80EB5C10FE8
:1034000080EAE0700844CA07002140F233438DE8A7
:103410000E000A460B4600F090F803B000BD70B5F0
:10342000C1F30A5201F000450024C1F3130140F238
:10343000FF3341F480119A4201DA002070BD40F25E
:1034400033439A42A2F2334203DC524200F02BF89B
:1034500000E090402C43F1D0404270BD30B50B46A7
:10346000014600202022012409E021FA02F59D42B4
:1034700005D303FA02F5491B04FA02F52844151E88
:10348000A2F10102F1DC30BD202A04DB203A00FA6F
:1034900002F1002070479140C2F1200320FA03F3AB
:1034A000194390407047202A04DB203A21FA02F0A9
:1034B0000021704721FA02F3D040C2F1200291406E
:1034C000084319467047202A06DBCB17203A41FAF9
:1034D00002F043EAE07306E041FA02F3D040C2F1A1
:1034E000200291400843194670473A2800D23038EC
:1034F00020F02002412A01D3A2F13700884201D3F3
:103500004FF0FF3070470000024B9361024BD361D4
:1035100000F090B8CD2400081936000810B5141E2C
:1035200073F1000408DA401C41F1000192185B417C
:103530001A4301D120F0010010BD2DE9F04D924653
:103540009B4611B1B1FA81F202E0B0FA80F220326A
:103550009046FFF799FF04460F4640EA0A0041EA09
:103560000B0153465A46084313D0114653EA010053
:1035700019D0C8F140025046FFF795FF05460E46A8
:10358000504659464246FFF77FFF084305D00120C9
:1035900004E020463946BDE8F08D0020054346EAA8
:1035A000E0762C4337430A986305E40AA0EB080051
:1035B0000022FD0A44EA47540A3002D500200146A1
:1035C000E9E7010510196941DDE90845001969417C
:1035D000BDE8F04DA2E70000064C074D06E0E068AC
:1035E00040F0010394E8070098471034AC42F6D34A
:1035F000FCF7A2FD90880008B0880008094910B5C2
:1036000008784C1C18B1401E0870205C10BD0021C9
:103610000720ABBE207010BD02490878421C0A701A
:1036200070470000E0020020026811441378016036
:1036300018467047D1600449516104491162002164
:103640001161114600F02EB829360008993600089D
:1036500070B521F0004303430CD0C1F30A55002498
:10366000D5EB040564EB0403D617AD1AB34102DBB6
:103670000020014670BD201841EB025170BD0EB50F
:1036800040F2334102910021CDE900110A460B4678
:10369000FFF753FF03B000BDC0B24FF4F05100F08C
:1036A00097B900002DE9F34F8BB04FF0000801F1FE
:1036B0000C000C464FF0010B46460DF1080A019034
:1036C0006269012101989047051E2DD0252D2CD02F
:1036D000216A8847C0B16269012101989047216A37
:1036E00088470028F7D1411E62690198904700E0A1
:1036F000761CA1690B988847216A88470028F7D172
:10370000E1690B988847DBE7A1690B988847074672
:10371000A84201D1761CD3E7E1690B9888477F1C4A
:1037200002D1B8F1000F6FD046E1002762693D4633
:103730003946019890472A2804D1626901210198ED
:1037400090470125DFF88492626901210198904732
:10375000A0F130010A290AD24F45E5DC07EB8701C9
:1037600000EB4107303FDFD445F01005ECE7E906F8
:1037700001D46FF000476C280AD04C2814D0682878
:1037800015D06A280DD074281CD07A281AD01DE0D4
:1037900062690121019890476C2802D045F0040528
:1037A00014E045F002050DE045F020050AE06269ED
:1037B000012101989047682802D045F0080505E0EE
:1037C00045F400656269012101989047C4E90157F9
:1037D00065283DD019DC58287AD00CDC452837D034
:1037E00004DC252826D0412831D131E046282FD0CD
:1037F00047282CD12CE05B2877D0612828D063287B
:103800007CD0642823D15AE0D0E06F2848D008DC6F
:1038100066281DD067281BD0692821D06E2816D1B4
:1038200027E0702845D0732868D0752847D07828BD
:103830000DD14DE0A1690B988847054625283FF436
:1038400069AFE1690B9888476D1C3FF46AAFB3E03C
:1038500023466A466FF001000B99AFF300809EE0AB
:1038600045F040006060A80723464FF0000236D4C0
:103870003EE0E8077FF447AF2068011D2160006843
:10388000290501D506701BE7290701D5068017E732
:10389000A90703D5F117C0E9006111E706600FE73A
:1038A00045F040006060A80723464FF0080216D498
:1038B0001EE040F60E0125EA0100606016E045F0CA
:1038C00040006060A80723464FF00A0207D40FE0CB
:1038D00045F040006060A80708D5234610226FF02D
:1038E00001000B99AFF3008059E007E02346102256
:1038F0006FF001000B99FFF753FB50E04FF0000908
:103900004F464B46632802D05B2806D040E0E806CD
:1039100001D40120A06001273AE0626901210198E9
:1039200090475E2805D14FF0010962694946019828
:103930009047216939B900210A46534643F82120AE
:10394000491C0829FADBB0B3216969B9C11700EB3A
:10395000D16253110AEB830122F01F02821A012067
:103960000B68904003430B60626901210198904706
:103970005D28E8D1B9F1000F09D00020514651F877
:103980002020D24341F82020401C0828F7DB02AB5E
:10399000224600976FF001000B99AFF300800028DA
:1039A0000CDA401C08D1BBF1000F05D04FF0FF30FE
:1039B0000DB0BDE8F08FFFE74046F9E7E90701D118
:1039C00008F1010806444FF0000B79E6CCCCCC0C92
:1039D0007F2801D9002208E0064A02EB5002C00706
:1039E000127800D1120902F00F0201209040084025
:1039F000704700003084000870B58C1810F8015B27
:103A000015F0070301D110F8013B2A1106D110F877
:103A1000012B03E010F8016B01F8016B5B1EF9D17B
:103A20002B0705D40023521E0DD401F8013BFAE701
:103A300010F8013BCB1A921C03E013F8015B01F86C
:103A4000015B521EF9D5A142D8D3002070BD000001
:103A50000148008870470000000002604FF0C0413C
:103A6000088070470149088070470000000002602C
:103A70000FB4054B10B503A9044A029800F066FB89
:103A800010BC5DF814FB0000AD240008D802002033
:103A90000FB4084B10B504A902AA039800F056FB16
:103AA000044602A9002000F02DFC204610BC5DF861
:103AB00014FB000005430008490050EAC12018BF6C
:103AC00004204A0D18BF40F0010040F2FF72B2EB33
:103AD000515F08BF40F00200012808BF0520704771
:103AE0002DE9F74F144694B00021C4E9021115994D
:103AF000079121F00045C9498D4206DC1599C4E9BA
:103B0000000117B00020BDE8F08FC549DFF814A30D
:103B1000A9423CDD0799C44E0029C44FC44A1599F7
:103B2000534619DDFFF783FB554506D0C14AC24B0A
:103B3000FFF77DFBC4E900010AE04FF0D352BE4B12
:103B4000FFF775FB32463B46FFF771FBC4E9000106
:103B500017B00120BDE8F08FFFF7C8FA554506D031
:103B6000B44AB54BFFF7C2FAC4E900010AE04FF0CE
:103B7000D352B14BFFF7BAFA32463B46FFF7B6FADB
:103B8000C4E9000117B04FF0FF30BDE8F08FAB493A
:103B9000A942159978DB21F0004183468846A84A5E
:103BA000A84BFFF74AFB0022A74BFFF79FFAFFF74E
:103BB00036FC0990FFF722FC06460F469C4A534606
:103BC000FFF73BFB43465A46FFF734FB80468A46E5
:103BD000984A994B30463946FFF72FFB2A0D0125AD
:103BE0000B9242465346FFF725FB032DC4E9000123
:103BF00039D00B98C1F30A51401A05EB4511113920
:103C0000814230DA9148C346784400EB0510CDF884
:103C10000CA00C90D0E9002330463946FFF70DFB8D
:103C200002460B460491069058460399FFF7FFFAA7
:103C300080468A4602460B4658460399FFF7F7FA34
:103C4000049B069AFFF7F3FA83460C9803913946D2
:103C5000D0E902233046FFF7F0FA5A46039BFFF7FC
:103C6000E6FA6D1CBDE707980028A2BF099817B0B7
:103C7000BDE8F08F616881F000416160099817B07C
:103C80004042BDE8F08FFFE784461598C1F3130169
:103C9000C0F30A50A0F2F5304FEA601800F01F069A
:103CA000C6F12000139000200690079041F4801E7A
:103CB00005206D4676B1664A08EB00017A4452F859
:103CC000213002EB8101B3404A68139922FA01F1D5
:103CD000194305E05F4908EB0002794451F82210CE
:103CE000A1FB0E27A1FB0C131A449A4234BF0123F7
:103CF000002303EB070A05EB8003D3E901B70F4468
:103D00008F4234BF0121002193448B4411B193456C
:103D100002D903E0934501D2012100E00021C3E96B
:103D200001B7514445F82010011EA0F10100C1DC8B
:103D30000298059F00F10050800F12900298DDE973
:103D400003568000FFF75AFB834628460D91FFF784
:103D500096FC6FF01D02FFF77BFCCDE90E013046AB
:103D6000FFF78DFC6FF03D02FFF772FC80468A463C
:103D70003846FFF784FC6FF05D02FFF769FC0746E9
:103D8000424653461191FFF7B1F9DDE90E23FFF7E3
:103D9000ADF95A460D9BFFF7A9F900250E465A4684
:103DA00028460D9BFFF743FADDE90E23FFF73FFAA4
:103DB00042465346FFF73BFA3A46119BFFF73AFA61
:103DC000DFF898A0244A5346FFF737FA074688469B
:103DD000234A244B31462846FFF72FFA3A464346FA
:103DE000FFF784F9074688464FF0A842534631460C
:103DF0002846FFF722FA3A464346FFF777F9159A25
:103E000012F0004F04D0129A81F0004152421292F7
:103E1000C4E90001129817B0BDE8F08FFB21E93F1B
:103E20007CD90240FB21F93F7370032E8A19A33B12
:103E3000000040543163621A61B4D03DFB21394126
:103E400083C8C96D305FE43F0000E03F34470000A5
:103E5000B046000092460000182D4454FB21F93D65
:103E60003326A611460B113C2DE9FF4D21F00048E9
:103E700007460C46B8F1795F08DAFFF7D0FA002858
:103E800001BF0020324904B0BDE8F08D3A46234618
:103E900010461946FFF7D1F9054602462D480E4651
:103EA0000B460621784400F05DF82A463346FFF7BA
:103EB000C4F9DDE9022382468B4638462146FFF7E6
:103EC000BCF904460F4652465B4628463146FFF78A
:103ED000B4F922463B46FFF7AAF907468A464FF057
:103EE000FF3228463146FFF7B3FB1B4A90450ADAFA
:103EF0003A465346FFF79BF904B00022BDE8F04D67
:103F0000134BFFF797B9154A4245A8BFA8F500150E
:103F10004FF00004B8BF124D22462B46FFF787F939
:103F20000646884622462B4600200949FFF77FF9BE
:103F300004460D463A46534630464146FFF777F968
:103F400004B022462B46BDE8F04DFFF773B90000E0
:103F50000000F03F684400003333D33F0000E93FE6
:103F60000000D23F2DE9F0414F1E00EBC70104468F
:103F7000D1E9000115461E4637F006020DD02A464B
:103F80003346FFF75AF97F1E04EBC703D3E900233A
:103F9000FFF7ACF837F00602F1D1022F25D0042F3D
:103FA00013D0062F18BFBDE8F0812A463346FFF72D
:103FB00044F9D4E90A23FFF799F82A463346FFF774
:103FC0003CF9D4E90823FFF791F82A463346FFF776
:103FD00034F9D4E90623FFF789F82A463346FFF778
:103FE0002CF9D4E90423FFF781F82A463346FFF77A
:103FF00024F9D4E90223FFF779F82A463346FFF77C
:104000001CF9D4E90023BDE8F041FFF76FB80000C8
:104010002DE9FF4D054621F0004084B00C46B0F17B
:10402000795F0BDA2846FFF747FD042808BF00F048
:104030006FF8284608B02146BDE8F08D2A460B46A9
:104040001046FFF7FAF806460F462A462346FFF7C2
:10405000F4F8804626488A4632463B460521784495
:10406000FFF780FF83461098029160B3214A224BEC
:1040700040465146FFF7E1F8CDE900015A46404677
:104080005146029BFFF7D9F882468846DDE90601D2
:104090004FF0FF32FFF7DCFA52464346FFF7C7F80E
:1040A00032463B46FFF7C9F8DDE90623FFF7BFF8C4
:1040B000DDE90023FFF7BBF808B02A462346BDE838
:1040C000F04DFFF7B7B80B465A4630463946FFF772
:1040D000B4F8084A084BFFF709F842465346FFF781
:1040E000ACF808B02A462346BDE8F04DFEF7FEBF07
:1040F000A6430000495555555555C5BF0122FFF748
:10410000A7BA0022134610461146FFF708B900006F
:10411000024A00201107FFF79BBA000001FDFFFFD4
:1041200002E008C8121F08C1002AFAD17047704780
:10413000002001E001C1121F002AFBD170470000DE
:104140000149086070470000DC0200202DE9FF4FA4
:104150008BB09A460F460546002606E025280BD070
:1041600052460D9990476D1C761C28780028F5D191
:104170000FB03046BDE8F08F0024A0460122604910
:1041800000E0044315F8013F203B02FA03F0084227
:10419000F7D128782E2817D115F8010F44F0040420
:1041A0002A280ED06FF02F022878A0F130010929BB
:1041B0000AD808EB880102EB410100EB01086D1CF5
:1041C000F2E757F8048B6D1C287869283ED006DC8E
:1041D0000028CDD063280BD0642804D136E07328A2
:1041E00010D075284BD052460D999047761C85E02B
:1041F00017F8040B8DF8000000208DF80100E94647
:10420000012003E057F8049B4FF0FF3061074FF0A7
:10421000000401D40AE0641C44450DDA8442FADB50
:1042200019F804100029F6D106E0641C8442FCDB76
:1042300019F804100029F8D1264404E019F8010BFC
:1042400052460D999047641EF8D257E001CF4FF0C7
:104250000A0B002802DA40422D2102E0210504D594
:104260002B218DF82410012103E0E10705D0202146
:10427000F7E70DF1200908910CE00021F9E701CFE3
:104280004FF00A0BF9E75946FFF7E8F801F1300261
:1042900009F8012D0028F6D1ADEB090000F1200B43
:1042A000600701D44FF00108D84502DDA8EB0B00F0
:1042B00000E000208046002406E009A85246005D88
:1042C0000D999047641C761C08988442F5DB04E045
:1042D000302052460D999047761CB8F10001A8F1A4
:1042E0000108F5DC05E019F8010B52460D999047DD
:1042F000761CBBF10001ABF1010BF4DC6D1C34E763
:10430000092801000A68531C0B60107070470000F8
:1043100000B5244B21F0004287B09A42DCBF002256
:10432000134629DD204B9A4208D140B94FF00100D5
:10433000FFF706FFFFF7E5FE07B000BD03DBFFF761
:10434000DDFE07B000BD02AAFFF7CAFB10F00301B3
:1043500004BF0DF1080C9CE80F000DD001200129CD
:104360000ED0022914D00DF1080C00909CE80F002B
:10437000FFF74EFE07B000BDFFF776FD07B000BDAA
:104380000DF1080C00909CE80F00FFF741FE05E0DE
:104390000DF1080C9CE80F00FFF766FD07B081F0F7
:1043A000004100BDFB21E93F0000F07F00B5254B37
:1043B00021F0004287B09A4203DC002213460092AB
:1043C0002BE0214B9A4208D140B94FF00100FFF792
:1043D000B7FEFFF796FE07B000BD03DBFFF78EFECA
:1043E00007B000BD02AAFFF77BFB10F003014FF0FE
:1043F00001000DD0012914D002291AD00DF1080CAA
:104400009CE80F00FFF730FD07B081F0004100BDD0
:104410000DF1080C00909CE80F00FFF7F9FD07B0C4
:1044200000BD0DF1080C9CE80F00FFF71DFD07B063
:1044300000BD0DF1080C00909CE80F00FFF7E8FDAF
:10444000E2E70000FB21E93F0000F07F04AE530AE1
:1044500057485526BD0D26500D954446AAB9056A04
:104460004D09AD4224AEB604AE4A6A4DBE0A4D5265
:104470000D25465D52BA0B544E0D6A43296D37091E
:104480005B4B749BC10497540A4B485B25BC06A543
:104490005006D4454ADAB802B64D0957422497B7B8
:1044A00004974A664B3E0D4A510EA54656D4BA05AE
:1044B000AD4E02B644393738092E4B7C96BF0C9569
:1044C000530D4A486DA53B0B554F056A454AADB99A
:1044D000025D4D092D422C95B60A954A7B4ABD06D0
:1044E000CA510B5546555ABB04DA4E0A5B43352B6D
:1044F000B8052B4C8A953F0E955206AA487AD53CB2
:104500000AB54F04B6454A57390A574D0526423E6B
:1045100093350D954975AABE056A51096D4654AE8D
:10452000BB04AD4F0A4D434D26B70D254B8D52BFF1
:104530000B54520B6A47696D3C095B50049B454A1A
:104540004BB90A4B4DAB25C206A55406D4496ADACD
:104550003D0AB6510937465497BB04974F064B4462
:1045600036A5370EA54A86B2BF05AC530AB64759E1
:1045700036BC092E500C96454D4AB80D4A4C0DA537
:104580004125AAB6056A497AADBD025D52092D479B
:104590005C95BA0A954E0B4A434B55370AD54A9556
:1045A0005ABF04BA530A5B48652BBC052B500A93CB
:1045B00045474AB906AA4C0AD54124DAB604B64A98
:1045C00069573D0A4E510D26465E933A0D534D05EF
:1045D000AA4336B537096D4BB4AEBF04AD530A4D8F
:1045E000486D25BC0D254F0D52445DAA380B5A4C21
:1045F000056D4124ADB6049B4A7A4BBE0A4B510A65
:10460000A5465B52BA06D24E0ADA42355B37093705
:104610004B8497C1049753064B4866A53C0EA54FA3
:1046200006B2444AB6380AAE4C092E423C97350CC5
:1046300096497D4ABD0D4A510DA54555AABA056A50
:104640004E0A6D43452EB7052D4B8A95BF0A9553EB
:104650000B4A476B553B0AD54F055A454A5D380A08
:104660005B4C052B423A93B60693497729BD06AABF
:10467000510AD54654DABA04B64E0A57434527388C
:104680000D264A8E933E0D52520DAA4766B53B0544
:104690006D4F04AE454A4EB90A4D4C0D15412D9251
:1046A000B54EA6999CA2988000180010244EA69999
:1046B0009CA2988082180010244EA6D99EA29880B1
:1046C00082180010044EE6D99EA6A8808218001019
:1046D000000FE6D9BEA6988882188000000FEFD997
:1046E000BEA6998C82988000000FEFDBBEA6999C35
:1046F000A2988000180FEFDBBEA6999CA2988000BC
:10470000180FEFDBBEA2998CA0988082180BEFDB0C
:10471000BEA6998CA2988082180FEFDBBEE6D99EC8
:10472000A2988082180FEFFBBFE6D99EA6988082E0
:10473000180FFFFFFCEFD9BEA618061404130615C8
:104740000514061506150717081708170818081680
:104750000716001F3B5A7897B5D4F30011013001BA
:104760004E010003030601040602050003051F1C99
:104770001F1E1F1E1F1F1E1F1E1F00000000000007
:104780001F0000003B0000005A00000078000000FD
:1047900097000000B5000000D4000000F300000006
:1047A00011010000300100004E0100000000000077
:1047B00000000000000000000000000000000018E1
:1047C0001818181818080008180000000000003415
:1047D000242424000000000000000000000000006D
:1047E00016247F2424247E242400000000000008D6
:1047F0003E6848681C1612127C1010000000006110
:10480000D296740810162949C60000000000000066
:104810003C646438724ACE467F00000000000018F5
:10482000181818000000000000000000000000043C
:10483000081810303030301010180C040000002020
:104840001008080C0404040C0818102000000008CC
:104850000A341C6A0800000000000000000000008C
:1048600000001818187F1818180000000000000039
:1048700000000000000000181808300000000000D0
:1048800000000000003C00000000000000000000EC
:1048900000000000000000181800000000000002E6
:1048A00006040C0808101020204000000000000042
:1048B0003C6642475B7342663C000000000000001B
:1048C00018784808080808087E000000000000006A
:1048D0003C460606040810207E0000000000000090
:1048E0007C0606043C0202067C000000000000007A
:1048F0000C1C14246444FF040400000000000000A9
:104900007E6060607E0202067C0000000000000005
:104910001E306048764242623C0000000000000009
:104920007E0206040C081810300000000000000091
:104930003C6242361C6642423C000000000000001F
:104940003C664242661A0204780000000000000043
:1049500000001818000000181800000000000000F7
:1049600000001818000000181808300000000000AF
:10497000000004183060100C060000000000000069
:10498000000000007E007E0000000000000000002B
:104990000000301804060C10200000000000003059
:1049A0001C06060618100010100000000000001C75
:1049B000224141DDB5A5A5AF94C0403C00000000F8
:1049C000181C342426627E43C10000000000000051
:1049D0007C4642467C4242427C00000000000000CF
:1049E0001E204040404040603E00000000000000AB
:1049F0007C464243434342467800000000000000EA
:104A00007E6060607E6060607E00000000000000EC
:104A10007E6060607E6060606000000000000000FA
:104A20001E604040CE4242623E0000000000000096
:104A3000424242427E4242424200000000000000E8
:104A40007E181818181818187E00000000000000C2
:104A50007C04040404040444780000000000000006
:104A60004244485070584C4442000000000000008E
:104A700020202020202020203E00000000000000F8
:104A80006266675F5B5BC1C1C1000000000000009F
:104A9000626272525A4A4E46460000000000000010
:104AA0003C6243C3C3C343623C00000000000000FB
:104AB0007C46424246784040400000000000000032
:104AC0003C6243C3C3C343623C180F0000000000B4
:104AD0007C6662667C6C6466620000000000000018
:104AE0003E6040601C0602027C00000000000000E6
:104AF0007F18181818181818180000000000000077
:104B000042424242424242623C0000000000000039
:104B1000C14342622624341C18000000000000003B
:104B2000C1C141495B5B7666660000000000000081
:104B300043663418181C2466C300000000000000FF
:104B4000C14266341C18181818000000000000004C
:104B50007E02040C181020607E0000000000001C83
:104B600010101010101010101010101C0000004039
:104B70002020101008080C04060200000000003C71
:104B80000C0C0C0C0C0C0C0C0C0C0C3C0000000065
:104B9000181C24620000000000000000000000005B
:104BA0000000000000000000000000FF00000020E6
:104BB00010000000000000000000000000000000E5
:104BC00000003C06023E42467A0000000000004021
:104BD00040405C62424242427C0000000000000013
:104BE00000001E20604060203E0000000000000227
:104BF00002023E62424242663A00000000000000AB
:104C000000003C62427E40603E0000000000000F59
:104C10001810107E1010101010000000000000008E
:104C200000003F66426658403E43423C0000004060
:104C300040405C62424242424200000000000018D4
:104C400018007808080808087E000000000000042A
:104C50000C007C040404040404040C7800000060CC
:104C60006060626C78706864620000000000007828
:104C700008080808080808087E0000000000000076
:104C80000000764B4B4B4B4B4B00000000000000EC
:104C900000005C624242424242000000000000000C
:104CA00000003C62424342623C0000000000000001
:104CB00000005C62424242427C40404000000000F2
:104CC00000003E62424242663A02020200000000D8
:104CD00000006E7263606060600000000000000011
:104CE00000003E20203C06027C0000000000000086
:104CF0001010FE10101010101E0000000000000028
:104D000000004242424242663A00000000000000B9
:104D10000000434266243418180000000000000020
:104D20000000C1C15B5A5E66660000000000000022
:104D3000000062261C181C26620000000000000013
:104D4000000043426624341C181830E000000000C4
:104D500000007E060C1810207E0000000000000EEF
:104D600018101010307010101010180E00000808E5
:104D700008080808080808080808080800000030A3
:104D8000180808080C0E0808080818300000000071
:104D900000000000714B0600000000000000000051
:104DA0000000000000000000000000000000000003
:104DB00000000000000000000000000000000000F3
:104DC00000000000000000000000000000000000E3
:104DD000000000000000038001800180018001804C
:104DE000018001800180018001800000000003C07B
:104DF00003C00000000000000000000000000000F0
:104E00000000000000000E700E700E700C300000EC
:104E10000000000000000000000000000000000092
:104E20000000000000000000000000000000000082
:104E300000000000000000000618063806307FFE63
:104E40000C300C300C300C307FFE0C601C60186095
:104E500018600000000000000000000000000000DA
:104E60000000000000C000C00FF83CC831C0318015
:104E70003D801F8003F001F8031C030C031C3FF866
:104E80003FE00700060000000000000000000000F6
:104E9000000000001C007E0E630C631863307E600F
:104EA00000C001800300077C0EE61CC618C630C691
:104EB000607C000000000000000000000000000016
:104EC0000000000000000FE01CF0387038701C601B
:104ED0001FC00F003F8C71CC60EC607C70383CFCD4
:104EE0001FCE0000000000000000000000000000D5
:104EF00000000000000003C001800180018000006C
:104F000000000000000000000000000000000000A1
:104F10000000000000000000000000000000000091
:104F200000000000003000E001C001800300070025
:104F3000060006000E000E000E000E000600070020
:104F40000300038001C000E000300000000000000A
:104F5000000000000C0006000380018001C000E09A
:104F6000006000600070007000700060006000E091
:104F700000C00180038006000C000000000000005B
:104F8000000000000000018011881DB803C007E088
:104F90003DBC01880180000000000000000000000E
:104FA0000000000000000000000000000000000001
:104FB00000000000000000000000000001800180EF
:104FC0000180018001807FFE0180018001800180DD
:104FD00000000000000000000000000000000000D1
:104FE00000000000000000000000000000000000C1
:104FF00000000000000000000000000003C003C02B
:1050000001C001C003801F0000000000000000007C
:105010000000000000000000000000000000000090
:105020000000000000000FF0000000000000000081
:105030000000000000000000000000000000000070
:105040000000000000000000000000000000000060
:1050500000000000000000000000000003C003C0CA
:1050600003C000000000000000000000000000007D
:10507000000000000000001800380030006000E070
:1050800000C001C001800300030006000E000C00F8
:105090001C001800300000000000000000000000AC
:1050A00000000000000001800FF01C38381C301C8C
:1050B000707E70EE738E7E0E7C0C300C381C1E7869
:1050C0000FE00000000000000000000000000000F1
:1050D000000000000000000007C01FC039C001C070
:1050E00001C001C001C001C001C001C001C03FFC3E
:1050F0003FFC000000000000000000000000000075
:1051000000000000000003801FF01838003800186D
:1051100000380038007001E0038007001C003FFCED
:105120003FFC000000000000000000000000000044
:1051300000000000000007801FF000380038003831
:10514000003007E007F00038001C001C001820F8B1
:105150003FE0000000000000000000000000000030
:10516000000000000000000000F001B00330073034
:105170000E301C30383070307FFE7FFE0030003043
:1051800000300000000000000000000000000000EF
:1051900000000000000000001FF8180018001800B0
:1051A00018001FE000F8001C001C001C003800F074
:1051B0001FC0000000000000000000000000000010
:1051C000000000000000000003F80F001C001800A1
:1051D000300037F83C3C300C300C380C381C1E3892
:1051E0000FF00000000000000000000000000000C0
:1051F00000000000000000003FFC001C0018003808
:105200000070006000E001C001800380070006001C
:105210000E00000000000000000000000000000080
:1052200000000000000003C01FF8381C381C381CA8
:105230001C380FF007F01C78381C300C381C3C3838
:105240000FF000000000000000000000000000005F
:1052500000000000000003801FF03838301C701C74
:10526000700C380C1FFC0FCC001C001800701FE0E5
:105270001F8000000000000000000000000000008F
:10528000000000000000000000000000000003C05B
:1052900003C00180000000000000000003C003C044
:1052A00003C000000000000000000000000000003B
:1052B000000000000000000000000000000003C02B
:1052C00003C00180000000000000000003C003C014
:1052D00001C001C003800F000000000000000000BA
:1052E000000000000000000000000000003800F096
:1052F00001C007001E0038000E00078001C00070CA
:10530000003000000000000000000000000000006D
:10531000000000000000000000000000000000008D
:1053200000003FFC000000003FFC3FFC00000000CC
:10533000000000000000000000000000000000006D
:105340000000000000000000000000001C000F0032
:10535000038001E00078001C007001E003800E0073
:105360000C00000000000000000000000000000031
:105370000000000000000FC000F0003800380038C6
:10538000003803F0038003000300000000000780E2
:105390000780000000000000000000000000000086
:1053A0000000000000E007F80C0C1806300670033F
:1053B00063F36633C673CC63CC62CC66CCE6C7FCC1
:1053C000E0006000700038101FF0000000000000D6
:1053D000000000000000000003C007E006E00E70BF
:1053E0000E700C301C3818183FFC3FFC700E600E1D
:1053F000E0070000000000000000000000000000C6
:1054000000000000000000003FF03838381C381C55
:1054100038383FF03FF8381C380C380C381C3FF84F
:105420003FE000000000000000000000000000005D
:1054300000000000000000E007FC1E0438003800F7
:105440003000700070007000300038003C001F9C7D
:1054500007FC000000000000000000000000000049
:1054600000000000000000003FF03078301C300CDD
:10547000300E300E300E300E300E301C30383FF013
:105480003FC000000000000000000000000000001D
:1054900000000000000000001FF8180018001800AD
:1054A00018001FF81FF818001800180018001FF83F
:1054B0001FF80000000000000000000000000000D5
:1054C00000000000000000001FF81800180018007D
:1054D00018001FF81FF8180018001800180018000E
:1054E00018000000000000000000000000000000A4
:1054F00000000000000000F007FC1E04380030002F
:105500007000700070FC700C700C300C380C1F1C9C
:1055100007FC000000000000000000000000000088
:105520000000000000000000300C300C300C300C8B
:10553000300C3FFC3FFC300C300C300C300C300C8D
:10554000300C00000000000000000000000000001F
:1055500000000000000000003FFC0180018001808D
:1055600001800180018001800180018001803FFC79
:105570003FFC0000000000000000000000000000F0
:1055800000000000000000001FF00030003000307C
:1055900000300030003000300030003000701DE07E
:1055A0001FC000000000000000000000000000001C
:1055B0000000000000000000381C387038E039C0DE
:1055C0003B803F003F003B8039C038E038703838BE
:1055D000381C000000000000000000000000000077
:1055E00000000000000000001C001C001C001C004B
:1055F0001C001C001C001C001C001C001C001FFCCC
:105600001FFC00000000000000000000000000007F
:105610000000000000000000381C7C3C6C3E6E6EF8
:10562000666E66CE63C66386618660066006600647
:105630006006000000000000000000000000000004
:1056400000000000000000003C0C3C0C3E0C360C3E
:10565000330C338C318C31CC30EC306C307C303CC2
:10566000301C0000000000000000000000000000EE
:1056700000000000000001C00FF81C3C381C700E38
:10568000700E60066006700E700E700C381C1E786E
:105690000FE000000000000000000000000000001B
:1056A00000000000000000003FF0383C381C380CBF
:1056B000380C381C38783FE03800380038003800A3
:1056C00038000000000000000000000000000000A2
:1056D00000000000000001C00FF81C3C381C700ED8
:1056E000700E60066006700E700E700C381C1E780E
:1056F0000FE0018001C000FF003C0000000000003E
:1057000000000000000000003FF03838381838185A
:10571000383838F03FC038E0387038383838381CFE
:10572000380E000000000000000000000000000033
:1057300000000000000001E00FF8380038003800D9
:105740003C001F8003F00078001C001C001C38780F
:105750003FE000000000000000000000000000002A
:1057600000000000000000007FFE01800180018039
:105770000180018001800180018001800180018021
:105780000180000000000000000000000000000098
:105790000000000000000000300C300C300C300C19
:1057A000300C300C300C300C300C300C381C1C38E9
:1057B0000FF00000000000000000000000000000EA
:1057C0000000000000000000E006700E700E381CA3
:1057D000381C1C181C380C300E70066007E003C023
:1057E00003C00000000000000000000000000000F6
:1057F0000000000000000000600660066006600611
:105800006186638673C673CE766C366C3C3C3C3CDA
:10581000381C000000000000000000000000000034
:105820000000000000000000301C38181C380E700A
:1058300007E003C003C007E00E701C381838381C9E
:10584000700E0000000000000000000000000000DA
:105850000000000000000000700E700C381C1C38A6
:105860000E70066007E003C00180018001800180A6
:1058700001800000000000000000000000000000A7
:1058800000000000000000003FFC001C0038007019
:1058900000E001C0038007000E000C0018003FFC70
:1058A0003FFC0000000000000000000000000000BD
:1058B0000000000007F007F00600060006000600E2
:1058C00006000600060006000600060006000600A8
:1058D000060006000600060007F0000000000000B9
:1058E00000000000000018001C000C00060007006B
:1058F00003000380018001C000C000600070003020
:1059000000380018000C000000000000000000003B
:10591000000000000FE00FE0006000600060006029
:105920000060006000600060006000600060006077
:1059300000600060006000600FE0000000000000F8
:10594000000000000000000003C006C006600C302C
:105950001818301C000000000000000000000000CB
:105960000000000000000000000000000000000037
:105970000000000000000000000000000000000027
:105980000000000000000000000000000000000017
:105990000000000000000000FFFF00000000000009
:1059A0000000000000001E00038000000000000056
:1059B00000000000000000000000000000000000E7
:1059C00000000000000000000000000000000000D7
:1059D00000000000000000000000000000001FF0B8
:1059E0001038001C001C0FFC1C1C381C381C3CFC14
:1059F0001FDC0000000000000000000000000000AC
:105A000000000000000038003800380038003BF883
:105A10003E1C3C1C380C380C380C380C381C3C78BC
:105A20001FE0000000000000000000000000000077
:105A3000000000000000000000000000000007F867
:105A40000E001C0038003800380038001C000F1809
:105A500007F8000000000000000000000000000047
:105A6000000000000000001C001C001C001C0FFCBB
:105A70001C1C381C301C301C301C301C383C1CFCDE
:105A80000F9C00000000000000000000000000006B
:105A900000000000000000000000000000000FF007
:105AA0001C38381C300C3FFC3000300038001E0C15
:105AB00007FC0000000000000000000000000000E3
:105AC00000000000003C01FE03800300030003000F
:105AD0007FFC7FFC030003000300030003000300BE
